:020000040800F2
:100000008006002065010008C30C0008C10C000830
:1000100000000000000000000000000000000000E0
:10002000000000000000000000000000C70C0008F5
:100030000000000000000000C50C0008C90C00080A
:1000400077010008770100087701000877010008B0
:10005000770100080902000877010008770100080D
:100060007701000877010008770100087701000890
:100070007701000877010008770100087701000880
:100080007701000877010008770100087701000870
:100090007701000877010008770100087701000860
:1000A0007701000877010008770100087701000850
:1000B0007701000877010008770100087701000840
:1000C00000F002F800F03EF80CA030C80838241800
:1000D0002D18671EA246AB4654465D46AC4201D180
:1000E00000F030F87E460F3EB6460FCC0126334274
:1000F00000D0FB1A3343A246AB461847A80F0000B6
:10010000C80F0000103A02D378C878C1FAD8520755
:1001100001D330C830C101D504680C6070470000BD
:100120000023002400250026103A01D378C1FBD813
:10013000520700D330C100D50B6070471FB51FBDFB
:1001400010B510BD00F02DF81146FFF7F7FF00F0D5
:10015000D7FD00F045F803B4FFF7F2FF03BC00F051
:100160004BF800000748804707480047FEE7FEE7D6
:10017000FEE7FEE7FEE7FEE704480549054A064BB1
:1001800070470000FD0C0008C1000008800000203E
:100190008006002080020020800200207047704707
:1001A0007047754600F024F8AE4605006946534690
:1001B000C008C000854618B020B5FFF7DDFF60BC61
:1001C000B64600260027C0C5C0C5C0C5C0C5C0C54D
:1001D000C0C5C0C5C0C5403D490849008D467047EF
:1001E00010B50446C046C0462046FFF7B4FF10BD18
:1001F000004870471000002001491820ABBEFEE700
:100200002600020070470000F0B581B01B4800686E
:10021000C00718D01A48006801252F026902009112
:100220001849491C184E884220DB304639462A4678
:1002300000F006F9304600992A4600F001F90F490E
:1002400008682843086001B0F0BD304639462246B0
:1002500000F0F6F830460099224600F0F1F8084A1E
:100260001168481C1060074A9142DEDA4B21890070
:1002700088422C46E9DB0024E7E7C046140401402D
:10028000700000208BE4160000080048B0B504465A
:1002900000F0DEF80546601C02D08A480078041998
:1002A00000F0D6F8401BA042FAD3B0BDF0B58AB03A
:1002B00002900D68002D00D1B9E05E48029A82429A
:1002C00001D0052000E004201723DB06D2180A2302
:1002D000DA410092042A00D3009000273B463C46B6
:1002E00008912A460BE01343F360079B641C0A68DD
:1002F0001046E040BF1C1B1D002800D197E00120E4
:100300000646A6403240F1D00490079303200346EE
:10031000BB400397DF4349680D4605406B1E012B28
:100320000697059113D80192029A90683840089B6D
:10033000DB68039FBB4003439360C806C00FA04027
:100340005368B3431646019A0343736006E0032DD6
:10035000029E039F02D10546079B1EE0F0680699A6
:10036000084008998B68BB400343F360022D079B4C
:1003700013D11C2018400F218140E3089B00F31883
:100380001D6A8D43089E3169814029431962079B8C
:100390007068029E032505900540BD4030680699AF
:1003A00008402843306005988003800F0899049D19
:1003B0009CD04F4908682843086008682840099085
:1003C0000C2018400F218140032325469D43099BA3
:1003D0001A4EAB598B43009981401943A951089992
:1003E000154E35684868C3030FD5154335607568E9
:1003F00083030FD495437560B568C3020FD495434A
:10040000B560F368800210D56DE795433560756877
:100410008303EFD515437560B568C302EFD5154367
:10042000B560F368800200D55DE793435CE70AB0EE
:10043000F0BDC04600100048000401400800014023
:10044000002A02D01822815070472822815070471C
:10045000054800687047C0461A48007802490A6893
:10046000101808607047C0467800002010B5D748C3
:10047000016810220A4302600024204600F004F8BC
:1004800000F022F8204610BD70B504467D20C00063
:100490000C4E317800F0F2FC0146D448006800F0C0
:1004A000EDFC00F0F5FB0125032C08D8002806D14F
:1004B0000025E84321462A4600F01CF874602846CF
:1004C00070BDC0460000002082B0094801680122CA
:1004D00011430160016811400191019911074268BF
:1004E0000A434260406808400090009802B070479C
:1004F00018100240002805D40322034693430A4AF9
:100500009A1803E00C220240064BD2188007C00E56
:100510008901C9B28140FF23834010689843084392
:100520001060704714ED00E000E400E0F0B585B025
:1005300004468078C0074C4B4FD001200390010740
:100540001A1F10680840029006D110680843106016
:10055000106808400490049800920191434E30685E
:10056000C00513D403980702306838433060FFF7A2
:100570006FFF05463068384208D1FFF769FF401B1E
:100580006428F7D90325284605B0F0BD03252802C5
:10059000354B1968014012D06268024091420ED07A
:1005A0000398000419681A6802431A601A688243A3
:1005B0001A6008462E4A10401860C80745D11868CE
:1005C0002B4908406168014319600298002804D152
:1005D000009A10680199884310602068C10709D10A
:1005E00081070FD4810616D481031CD40025400551
:1005F000C9D521E0196903229143A2680A431A610F
:100600008107EFD5032109041A698A43E168114380
:1006100019618106E8D519691022914322690A43BC
:100620001A618103E2D5196980229143A2690A43C4
:100630001A6100254005A6D51869402188436169E3
:1006400001431961284605B0F0BDFFF701FF0646DA
:10065000604F054B18688007B1D4FFF7F9FE801B87
:10066000B842F6D98FE7C046201002400070004023
:10067000FFFCFFFFF0B581B0002847D00446534A85
:100680001368012003408B4208D213680126B3434C
:100690000B431360126832408A4238D100912168BE
:1006A0008A074B4B11D54A0707D507221202484B40
:1006B0001B681343464A1360454B1A68F0239A435C
:1006C000A3681343424A1360414BC90722D13F49F3
:1006D000086801263040009A904205D90868B04366
:1006E00008600868C00712D12078400706D50720A7
:1006F000000219688143E068084318601A6810070F
:10070000810F3548022912D2044650E001263046B6
:1007100001B0F0BD616803290DD01A1F02290FD066
:10072000012912D1126892030646F0D511E003297F
:1007300026D12A4C3BE01A6BD2030646E7D508E0E7
:10074000126892010646E2D503E012689207064657
:10075000DDD518680326B04308431860FFF778FE1C
:1007600007461C4D1A4B18680C2101406068800038
:100770008142ACD0FFF76CFEC01BA842F2D9C6E79D
:100780000321CB031249896A0F240C401449095DE7
:1007900094021A40240F134D2C5D9A4202D0330468
:1007A0009A4200E00D4800F069FB4443084B18688A
:1007B0000006000F0C49085CC4400C480460002689
:1007C0003046FFF761FE304601B0F0BD0020024028
:1007D000041002408813000000127A00006CDC0252
:1007E0009210000882100008721000080800002013
:1007F000F0B587B004460120002C00D142E20490FD
:100800002078C007F84E05940CD071680C20014088
:10081000042900D090E03068800303D56068002888
:1008200000D120E12078800721D570680007800F73
:100830000ED070680C210140082900D09DE00320F3
:10084000C003716801400120C003814200D094E0E0
:1008500030688007059C03D5E068012800D002E1DC
:100860003068F82188432169C90001433160059C43
:100870002078000724D42078400737D42078C00699
:1008800000D4D3E005984069411D00D1C2E00128A1
:1008900000D02FE1706B042101437163706B012163
:1008A00001437163FFF7D4FD0546706B800700D5E7
:1008B000B4E0FFF7CDFD411B03200229F5D9E1E1AA
:1008C000706AE169002900D181E00121084370626A
:1008D000FFF7BEFD0546706A8007CCD4FFF7B8FD70
:1008E000401B0228F7D9032007B0F0BD0120039078
:1008F0000107F0690840029006D1F0690843F061F1
:10090000F0690840069006980191DF4F3868C005ED
:100910004AD403980402386820433860FFF798FDF2
:100920000546386820423FD1FFF792FD401B6428FE
:10093000F7D9032007B0F0BD71680140082908D13C
:100940000320C0037168014001200004814200D1EE
:1009500061E7616801204704002900D116E10529FB
:1009600000D12AE1012900D12BE1010432688A4338
:10097000326081043068884326E13068059CE16874
:10098000002936D0012108433060FFF761FD05469C
:100990003068800700D563E7FFF75AFD401B022847
:1009A000F6D9032007B0F0BD05988068002800D173
:1009B000B5E0052800D1C8E0012800D1C9E0306ABF
:1009C000039988433062306A04218843C4E00121DE
:1009D00088437062FFF73CFD0546706A800700D4CB
:1009E00049E7FFF735FD401B0228F6D9032007B081
:1009F000F0BD012188433060FFF72AFD05463068CD
:100A0000800700D433E7FFF723FD411B03200229B1
:100A1000F5D937E1706B042188437063706BF8215E
:100A2000884305998969C900014371630598007875
:100A300080060BD571680C2001400C2939D1706BF0
:100A4000C00303D50598006A01280CD10598446AB3
:100A5000002C00D1DFE070680C210140082905D18D
:100A6000012C00D0C2E0049807B0F0BD01200206BE
:100A700031680492914331604706FFF7E9FC05466F
:100A8000022C0BD1049C3068384200D1DBE0FFF728
:100A9000DFFC411B03200229F5D9F3E0306838421E
:100AA00000D1B8E0FFF7D4FC411B03200229F5D99F
:100AB000E8E071680140082905D10320C00371688E
:100AC00001408142BBD0706B0599096A002900D1B1
:100AD000A7E001210C0420437063FFF7B9FC054631
:100AE000706B2042B2D1FFF7B3FC411B03200229F7
:100AF000F6D9C7E0706B042101437163706B01216B
:100B000088437063FFF7A4FC0546706B80078DD5A2
:100B1000FFF79EFC411B03200229F6D9B2E0306AA0
:100B2000039988433062306A042188433062574C0D
:100B3000FFF78EFC0546306A80071DD5FFF788FC5D
:100B4000411B0320A142F6D99CE0306A04210143F5
:100B50003162306A0399084330624C4CFFF778FCED
:100B60000546306A800707D4FFF772FC401BA0429D
:100B7000F7D9032007B0F0BD02980028059C00D0EB
:100B80007CE6F06901998843F06177E601043268F8
:100B90008A4332608004316881433160FFF758FC3A
:100BA0000546059C3068384200D13BE6FFF750FC13
:100BB000411B03206429F5D964E0810432680A43AB
:100BC00032600104306808433060FFF741FC05469D
:100BD0003068384200D025E6FFF73AFC401B642815
:100BE000F6D9032007B0F0BD001002400320C20375
:100BF00070680240F16A059CA36A9A42049D0DD177
:100C00000F221140236B994208D191040840E16AF8
:100C10008842284636D1002007B0F0BD284607B0EC
:100C2000F0BD01210C04A0437063FFF711FC0546E1
:100C3000706B204200D109E7FFF70AFC411B03203B
:100C40000229F5D91EE0F06A0F218843059A116B3D
:100C50000143F1627B20C00371688143D06A08437D
:100C6000916A01437160306820433060FFF7F0FB08
:100C7000044630683842CED1FFF7EAFB011B03205F
:100C80000229F6D907B0F0BD0070004088130000BB
:100C9000401E010E01D0012070470749074A5060ED
:100CA000754803680B40032189075918016000202B
:100CB0009060072111607047FFFFFF0010E000E027
:100CC000FEE7FEE77047704710B50B4C216865489A
:100CD000C82906D180210122FFF7B2FB0020206045
:100CE00003E080210022FFF7ABFBFFF7B5FB206894
:100CF000401C206010BDC0467400002070470000FA
:100D000098B0FFF7B3FB00250E950F95129511953E
:100D100010950D950C950120139022210B9117959C
:100D200001051691C1031591022614960E9010200C
:100D30000F90059504950395029501950BA8FFF773
:100D400057FD002803D0EFF3108072B6FEE70A9536
:100D5000099508960720079007A801242146FFF768
:100D600089FC002803D0EFF3108072B6FEE70695E9
:100D7000650400956846FFF7D9FB002803D0EFF320
:100D8000108072B6FEE7E104304802680A43026050
:100D900002680A400B920B990168294301600168BF
:100DA00029400B910B9941682143416028A00BA970
:100DB0000A4628C828C2A8C8A8C22A4D2846FFF754
:100DC00075FA610228462246FFF73AFBE143092003
:100DD000C00602680A4002600268B243026082688C
:100DE0000A408260C2680A40C260C1683143C16083
:100DF0001D48046084601D48016889B20160FF20BD
:100E000001021B4A13688B4303218903591811609F
:100E1000184920220A60000617490A688243E00741
:100E20001018086019200401402601222846314686
:100E3000FFF706FB2046FFF729FA00222846314635
:100E4000FFF7FEFA2046FFF721FAEDE71410024003
:100E5000C0030000010000000000000000000000CE
:100E600000000000000800480004014008000140A4
:100E700004E400E000E100E020ED00E043088B42E4
:100E80001AD3002203098B4279D3030A8B425ED323
:100E9000030B8B4242D3030C8B4227D30902FF2260
:100EA00012BA030C8B4202D31212090203D0030BB5
:100EB0008B4233D31AE0D3E0411A8041401C704783
:100EC00003460B4371D443088B42F5D30022030938
:100ED0008B4254D3030A8B4239D3030B8B421DD36D
:100EE000030C8B4202D394466EE0090AC30B8B427B
:100EF00001D3CB03C01A5241830B8B4201D38B0326
:100F0000C01A5241430B8B4201D34B03C01A5241CA
:100F1000030B8B4201D30B03C01A5241C30A8B420D
:100F200001D3CB02C01A5241830A8B4201D38B02F8
:100F3000C01A5241430A8B4201D34B02C01A52419C
:100F4000030A8B4201D30B02C01A5241CDD2C3090E
:100F50008B4201D3CB01C01A524183098B4201D38A
:100F60008B01C01A524143098B4201D34B01C01A75
:100F7000524103098B4201D30B01C01A5241C308ED
:100F80008B4201D3CB00C01A524183088B4201D35C
:100F90008B00C01A524143088B4201D34B00C01A48
:100FA0005241411A524110007047CA0F00D04942C5
:100FB000031000D34042534000229C4603098B4259
:100FC0002DD3030A8B4212D38901FC2212BA030AE1
:100FD0008B420CD3890192118B4208D38901921163
:100FE0008B4204D3890137D0921100E08909C309EB
:100FF0008B4201D3CB01C01A524183098B4201D3EA
:101000008B01C01A524143098B4201D34B01C01AD4
:10101000524103098B4201D30B01C01A5241C3084C
:101020008B4201D3CB00C01A524183088B4201D3BB
:101030008B00C01A5241D9D243088B4201D34B00D6
:10104000C01A5241411A00D201465241104663462D
:101050005B1000D34042704763465B1000D34042B0
:1010600001B50021004201D0C9430846C046C04630
:1010700002BD00000000000000000102030406079A
:10108000080902030405060708090A0B0C0D0E0FD8
:1010900010100102030405060708090A0B0C0D0EC7
:1010A0000F100000C8100008000000201000000011
:1010B00004010008D810000810000020700600008D
:1010C00020010008000000000100000004000000F2
:0810D00000127A00000000008C
:04000005080000C12E
:00000001FF
