:020000040800F2
:100000007806002065010008A70A0008A50A000874
:1000100000000000000000000000000000000000E0
:10002000000000000000000000000000AB0A000813
:100030000000000000000000A90A0008AD0A000846
:1000400077010008770100087701000877010008B0
:1000500077010008770100087701000877010008A0
:100060007701000877010008770100087701000890
:100070007701000877010008770100087701000880
:100080007701000877010008770100087701000870
:100090007701000877010008770100087701000860
:1000A0007701000877010008770100087701000850
:1000B0007701000877010008770100087701000840
:1000C00000F002F800F03EF80CA030C80838241800
:1000D0002D18671EA246AB4654465D46AC4201D180
:1000E00000F030F87E460F3EB6460FCC0126334274
:1000F00000D0FB1A3343A246AB461847600F0000FE
:10010000800F0000103A02D378C878C1FAD852079D
:1001100001D330C830C101D504680C6070470000BD
:100120000023002400250026103A01D378C1FBD813
:10013000520700D330C100D50B6070471FB51FBDFB
:1001400010B510BD00F02DF81146FFF7F7FF00F0D5
:10015000B3FC00F045F803B4FFF7F2FF03BC00F076
:100160004BF800000748804707480047FEE7FEE7D6
:10017000FEE7FEE7FEE7FEE704480549054A064BB1
:1001800070470000B50A0008C10000087800002090
:10019000780600207802002078020020704770471F
:1001A0007047754600F024F8AE4605006946534690
:1001B000C008C000854618B020B5FFF7DDFF60BC61
:1001C000B64600260027C0C5C0C5C0C5C0C5C0C54D
:1001D000C0C5C0C5C0C5403D490849008D467047EF
:1001E00010B50446C046C0462046FFF7B4FF10BD18
:1001F000004870471000002001491820ABBEFEE700
:100200002600020070470000B0B5044600F00CF86C
:100210000546601C02D021480078041900F004F85B
:10022000401BA042FAD3B0BD054800687047C046E5
:100230001A48007802490A68101808607047C046DA
:100240007000002010B5D748016810220A430260F0
:100250000024204600F004F800F022F8204610BDEB
:1002600070B504467D20C0000C4E317800F0E2FDF0
:100270000146D448006800F0DDFD00F0F9FB0125DF
:10028000032C08D8002806D10025E84321462A4639
:1002900000F01CF87460284670BDC04600000020C5
:1002A00082B00948016801221143016001681140D0
:1002B00001910199110742680A4342604068084071
:1002C0000090009802B0704718100240002805D432
:1002D0000322034693430A4A9A1803E00C22024081
:1002E000064BD2188007C00E8901C9B28140FF2396
:1002F00083401068984308431060704714ED00E095
:1003000000E400E0F0B585B004468078C0074C4BAF
:100310004FD00120039001071A1F10680840029077
:1003200006D11068084310601068084004900498D3
:1003300000920191434E3068C00513D40398070220
:10034000306838433060FFF76FFF05463068384249
:1003500008D1FFF769FF401B6428F7D90325284619
:1003600005B0F0BD03252802354B1968014012D0B5
:100370006268024091420ED00398000419681A681E
:1003800002431A601A6882431A6008462E4A1040D7
:100390001860C80745D118682B49084061680143B7
:1003A00019600298002804D1009A106801998843C6
:1003B00010602068C10709D181070FD4810616D4C7
:1003C00081031CD400254005C9D521E01969032209
:1003D0009143A2680A431A618107EFD503210904FA
:1003E0001A698A43E168114319618106E8D51969E0
:1003F0001022914322690A431A618103E2D51969E7
:1004000080229143A2690A431A6100254005A6D5BE
:10041000186940218843616901431961284605B084
:10042000F0BDFFF701FF0646604F054B18688007D7
:10043000B1D4FFF7F9FE801BB842F6D98FE7C0466A
:100440002010024000700040FFFCFFFFF0B581B0BB
:10045000002847D00446534A1368012003408B42CA
:1004600008D213680126B3430B431360126832406D
:100470008A4238D1009121688A074B4B11D54A072F
:1004800007D507221202484B1B681343464A1360E4
:10049000454B1A68F0239A43A3681343424A1360FA
:1004A000414BC90722D13F49086801263040009AD4
:1004B000904205D90868B04308600868C00712D1A7
:1004C0002078400706D50720000219688143E068BC
:1004D000084318601A681007810F3548022912D2A4
:1004E000044650E00126304601B0F0BD61680329A2
:1004F0000DD01A1F02290FD0012912D112689203C0
:100500000646F0D511E0032926D12A4C3BE01A6BB0
:1005100092030646E7D508E0126892010646E2D546
:1005200003E0126892070646DDD518680326B0433B
:1005300008431860FFF778FE07461C4D1A4B1868F1
:100540000C210140606880008142ACD0FFF76CFE56
:10055000C01BA842F2D9C6E70321CB031249896A1E
:100560000F240C401449095D94021A40240F134DC6
:100570002C5D9A4202D033049A4200E00D4800F00C
:1005800059FC4443084B18680006000F0C49085CEE
:10059000C4400C48046000263046FFF761FE304638
:1005A00001B0F0BD0020024004100240881300009A
:1005B00000127A00006CDC024A1000083A100008B1
:1005C0002A10000808000020F0B587B0044601207A
:1005D000002C00D145E204902078C007F94E059424
:1005E0000CD071680C200140042900D090E03068E4
:1005F000800303D56068002800D120E120788007BF
:1006000021D570680007800F0ED070680C21014062
:10061000082900D09DE00320C0037168014001203B
:10062000C003814200D094E030688007059C03D568
:10063000E068012800D002E13068F8218843216990
:10064000C90001433160059C2078000724D420783C
:10065000400737D42078C00600D4D3E0059840691D
:10066000411D00D1C2E0012800D030E1706B0421AF
:1006700001437163706B012101437163FFF7D4FD86
:100680000546706B800700D5B4E0FFF7CDFD411B38
:1006900003200229F5D9E4E1706AE169002900D15B
:1006A00081E0012108437062FFF7BEFD0546706AD4
:1006B0008007CCD4FFF7B8FD401B0228F7D90320F0
:1006C00007B0F0BD012003900107F06908400290D7
:1006D00006D1F0690843F061F06908400690069879
:1006E0000191E14F3868C0054AD403980402386884
:1006F00020433860FFF798FD0546386820423FD117
:10070000FFF792FD401B6428F7D9032007B0F0BD26
:1007100071680140082908D10320C00371680140B5
:1007200001200004814200D161E761680120470493
:10073000002900D117E1052900D12BE1012900D1C1
:100740002CE1010432688A433260810430688843B6
:1007500027E13068059CE168002936D00121084373
:100760003060FFF761FD05463068800700D563E71C
:10077000FFF75AFD401B0228F6D9032007B0F0BD51
:1007800005988068002800D1B6E0052800D1C9E0AE
:10079000012800D1CAE0306A039988433062306A88
:1007A00004218843C5E0012188437062FFF73CFDC6
:1007B0000546706A800700D449E7FFF735FD401B06
:1007C0000228F6D9032007B0F0BD0121884330602C
:1007D000FFF72AFD05463068800700D433E7FFF7AE
:1007E00023FD411B03200229F5D93AE1706B042156
:1007F00088437063706BF821884305998969C90043
:10080000014371630598007880060BD571680C2050
:1008100001400C2939D1706B800303D50598006A1B
:1008200001280CD10598446A002C00D1E1E07068E1
:100830000C210140082905D1012C00D0C4E0049806
:1008400007B0F0BD01200206316804929143316087
:100850004706FFF7E9FC0546022C0BD1049C3068E3
:10086000384200D1DEE0FFF7DFFC411B0320022904
:10087000F5D9F6E03068384200D1BAE0FFF7D4FC91
:10088000411B03200229F5D9EBE0716801400829DA
:1008900005D10320C003716801408142BBD0706B59
:1008A0000599096A002900D1A9E001210A04104331
:1008B00070634C04FFF7B8FC0546706B2042B1D161
:1008C000FFF7B2FC411B03200229F6D9C9E0706B87
:1008D000042101437163706B012188437063FFF74A
:1008E000A3FC0546706B80078CD5FFF79DFC411B70
:1008F00003200229F6D9B4E0306A039988433062B4
:10090000306A042188433062584CFFF78DFC05465D
:10091000306A80071DD5FFF787FC411B0320A142E9
:10092000F6D99EE0306A042101433162306A0399AE
:10093000084330624D4CFFF777FC0546306A80076C
:1009400007D4FFF771FC401BA042F7D9032007B082
:10095000F0BD02980028059C00D07BE6F069019963
:100960008843F06176E6010432688A43326080048D
:10097000316881433160FFF757FC0546059C3068BC
:10098000384200D13AE6FFF74FFC411B03206429AF
:10099000F5D966E0810432680A43326001043068A8
:1009A00008433060FFF740FC05463068384200D00D
:1009B00024E6FFF739FC401B6428F6D9032007B072
:1009C000F0BDC046001002400320C2037068024020
:1009D000F16A059CA36A9A42049D0DD10F22114031
:1009E000236B994208D191040840E16A8842284665
:1009F00037D1002007B0F0BD284607B0F0BD012177
:100A00000A04904370634C04FFF70EFC0546706BBC
:100A1000204200D106E7FFF707FC411B0320022913
:100A2000F5D91EE0F06A0F218843059A116B014346
:100A3000F1627B20C00371688143D06A0843916AE8
:100A400001437160306820433060FFF7EDFB0446DE
:100A500030683842CDD1FFF7E7FB011B03200229A4
:100A6000F6D907B0F0BDC046007000408813000002
:100A7000401E010E01D0012070470749074A50600F
:100A8000074803680B4003218907591801600020BB
:100A90009060072111607047FFFFFF0010E000E049
:100AA00020ED00E0FEE7FEE77047704780B5FFF7F6
:100AB000BFFB80BD70470000A2B0FFF7C3FB00265C
:100AC000189619961C961B961A961796169601203C
:100AD0001D9022211591219601052091C1031F919E
:100AE00002271E971890102419940F960E960D96B3
:100AF0000C960B9615A8FFF767FD002803D0EFF3BF
:100B0000108072B6FEE71496139612970720119084
:100B100011A801252946FFF799FC002803D0EFF31F
:100B2000108072B6FEE7109609956D040A950AA822
:100B3000FFF7E8FB002803D0EFF3108072B6FEE762
:100B4000AE48016829430160099BD90402680A4341
:100B5000026003975A0208924168114341605907A5
:100B600082680A43826018031F46A5490A68024347
:100B70000A600868A34A1040086098030A680243A4
:100B80000A600868A04A1040086018040A68024316
:100B90000A6008689D4A1040086098040A68024389
:100BA0000A6008689A4A10400860486840229043EA
:100BB000486048688022904348604868954A1040E1
:100BC00048604868944A104048608A680296934E8C
:100BD00032408A608B68924A13408B608D68914BDB
:100BE0001D408D608868904D28408860C8683040FE
:100BF000C860C868834E3040C860C8681040C8608C
:100C0000C868814A1040C860C8681840C860C86891
:100C10007E4A1040C860C8682840C860C8687C4ADE
:100C20001040C8600868384308600868039D28437E
:100C300008603A0209200190C0060368134303606C
:100C40000268089B1A430260CA68BA43CA60CA684D
:100C50002B46AA43CA60C1686E4A1140C160C16890
:100C60006D4A1140C16071480168082291430160DA
:100C7000016821430160790302680A430260B902F6
:100C800002688A430260FA02036893430360C26900
:100C90000A43C261664D28460C3801683943016039
:100CA0002846103801683943016001242046FFF7C7
:100CB000ABFA7F20099028602046FFF7A5FA97201D
:100CC000089028602046FFF79FFAAF200790286021
:100CD0002046FFF799FAC520069028602046FFF7C6
:100CE00093FAD820059028602046FFF78DFAE82077
:100CF000049028602046FFF787FAF4262E602046ED
:100D0000FFF782FAFB272F602046FFF77DFAFE20CF
:100D100028602046FFF778FA2F602046FFF774FA24
:100D20002E602046FFF770FA049828602046FFF7EF
:100D30006BFA059828602046FFF766FA0698286047
:100D40002046FFF761FA079828602046FFF75CFA13
:100D5000089828602046FFF757FA0998286020462F
:100D6000FFF752FA6620099028602046FFF74CFAF8
:100D70004E20089028602046FFF746FA382007905A
:100D800028602046FFF740FA25200690286020467C
:100D9000FFF73AFA1520059028602046FFF734FA4D
:100DA000019E2E602046FFF72FFA039F2F602046FA
:100DB000FFF72AFA029828602046FFF725FA2F60ED
:100DC0002046FFF721FA2E602046FFF71DFA05980E
:100DD00028602046FFF718FA069828602046FFF79B
:100DE00013FA079828602046FFF70EFA0898286043
:100DF0002046FFF709FA0998286056E714100240C8
:100E000000080048FFDFFFFFFF7FFFFFFFFFFDFF40
:100E1000FFFFF7FFFFFEFFFFFFFDFFFFFFEFFFFFFD
:100E2000FFBFFFFFFFFFFEFFFFFFFBFF0C240140A2
:100E30001074004043088B421AD3002203098B42EE
:100E400079D3030A8B425ED3030B8B4242D3030C4C
:100E50008B4227D30902FF2212BA030C8B4202D322
:100E60001212090203D0030B8B4233D31AE0D3E0F2
:100E7000411A8041401C704703460B4371D443081C
:100E80008B42F5D3002203098B4254D3030A8B42D1
:100E900039D3030B8B421DD3030C8B4202D39446F0
:100EA0006EE0090AC30B8B4201D3CB03C01A524137
:100EB000830B8B4201D38B03C01A5241430B8B42ED
:100EC00001D34B03C01A5241030B8B4201D30B03D6
:100ED000C01A5241C30A8B4201D3CB02C01A5241FD
:100EE000830A8B4201D38B02C01A5241430A8B42C0
:100EF00001D34B02C01A5241030A8B4201D30B02A9
:100F0000C01A5241CDD2C3098B4201D3CB01C01AC2
:100F1000524183098B4201D38B01C01A52414309CC
:100F20008B4201D34B01C01A524103098B4201D3BA
:100F30000B01C01A5241C3088B4201D3CB00C01A27
:100F4000524183088B4201D38B00C01A524143089F
:100F50008B4201D34B00C01A5241411A524110003A
:100F60007047CA0F00D04942031000D3404253409B
:100F700000229C4603098B422DD3030A8B4212D3D5
:100F80008901FC2212BA030A8B420CD38901921107
:100F90008B4208D3890192118B4204D3890137D047
:100FA000921100E08909C3098B4201D3CB01C01A19
:100FB000524183098B4201D38B01C01A524143092C
:100FC0008B4201D34B01C01A524103098B4201D31A
:100FD0000B01C01A5241C3088B4201D3CB00C01A87
:100FE000524183088B4201D38B00C01A5241D9D29F
:100FF00043088B4201D34B00C01A5241411A00D220
:1010000001465241104663465B1000D34042704790
:1010100063465B1000D3404201B50021004201D07D
:10102000C9430846C046C04602BD0000000000009B
:10103000000001020304060708090203040506076D
:1010400008090A0B0C0D0E0F10100102030405060F
:101050000708090A0B0C0D0E0F1000008010000885
:10106000000000201000000004010008901000089B
:1010700010000020680600002001000800000000A9
:10108000010000000400000000127A0000000000CF
:04000005080000C12E
:00000001FF
