:020000040800F2
:100000008806002065010008A70A0008A50A000864
:1000100000000000000000000000000000000000E0
:10002000000000000000000000000000AB0A000813
:100030000000000000000000A90A0008AD0A000846
:1000400077010008770100087701000877010008B0
:1000500077010008770100087701000877010008A0
:100060007701000877010008770100087701000890
:100070007701000877010008770100087701000880
:100080007701000877010008770100087701000870
:100090007701000877010008770100087701000860
:1000A0007701000877010008770100087701000850
:1000B000770100085910000877010008770100084F
:1000C00000F002F800F03EF80CA030C80838241800
:1000D0002D18671EA246AB4654465D46AC4201D180
:1000E00000F030F87E460F3EB6460FCC0126334274
:1000F00000D0FB1A3343A246AB461847B8140000A1
:10010000D8140000103A02D378C878C1FAD8520740
:1001100001D330C830C101D504680C6070470000BD
:100120000023002400250026103A01D378C1FBD813
:10013000520700D330C100D50B6070471FB51FBDFB
:1001400010B510BD00F02DF81146FFF7F7FF00F0D5
:100150009FFF00F045F803B4FFF7F2FF03BC00F087
:100160004BF800000748804707480047FEE7FEE7D6
:10017000FEE7FEE7FEE7FEE704480549054A064BB1
:1001800070470000B50A0008C10000088800002080
:1001900088060020880200208802002070477047EF
:1001A0007047754600F024F8AE4605006946534690
:1001B000C008C000854618B020B5FFF7DDFF60BC61
:1001C000B64600260027C0C5C0C5C0C5C0C5C0C54D
:1001D000C0C5C0C5C0C5403D490849008D467047EF
:1001E00010B50446C046C0462046FFF7B4FF10BD18
:1001F000004870471000002001491820ABBEFEE700
:100200002600020070470000B0B5044600F00CF86C
:100210000546601C02D021480078041900F004F85B
:10022000401BA042FAD3B0BD054800687047C046E5
:100230001A48007802490A68101808607047C046DA
:100240008000002010B5D748016810220A430260E0
:100250000024204600F004F800F022F8204610BDEB
:1002600070B504467D20C0000C4E317801F08EF848
:100270000146D648006801F089F800F0F9FB012535
:10028000032C08D8002806D10025E84321462A4639
:1002900000F01CF87460284670BDC04600000020C5
:1002A00082B00948016801221143016001681140D0
:1002B00001910199110742680A4342604068084071
:1002C0000090009802B0704718100240002805D432
:1002D0000322034693430A4A9A1803E00C22024081
:1002E000064BD2188007C00E8901C9B28140FF2396
:1002F00083401068984308431060704714ED00E095
:1003000000E400E0F0B585B004468078C0074C4BAF
:100310004FD00120039001071A1F10680840029077
:1003200006D11068084310601068084004900498D3
:1003300000920191434E3068C00513D40398070220
:10034000306838433060FFF76FFF05463068384249
:1003500008D1FFF769FF401B6428F7D90325284619
:1003600005B0F0BD03252802354B1968014012D0B5
:100370006268024091420ED00398000419681A681E
:1003800002431A601A6882431A6008462E4A1040D7
:100390001860C80745D118682B49084061680143B7
:1003A00019600298002804D1009A106801998843C6
:1003B00010602068C10709D181070FD4810616D4C7
:1003C00081031CD400254005C9D521E01969032209
:1003D0009143A2680A431A618107EFD503210904FA
:1003E0001A698A43E168114319618106E8D51969E0
:1003F0001022914322690A431A618103E2D51969E7
:1004000080229143A2690A431A6100254005A6D5BE
:10041000186940218843616901431961284605B084
:10042000F0BDFFF701FF0646604F054B18688007D7
:10043000B1D4FFF7F9FE801BB842F6D98FE7C0466A
:100440002010024000700040FFFCFFFFF0B581B0BB
:10045000002847D00446534A1368012003408B42CA
:1004600008D213680126B3430B431360126832406D
:100470008A4238D1009121688A074B4B11D54A072F
:1004800007D507221202484B1B681343464A1360E4
:10049000454B1A68F0239A43A3681343424A1360FA
:1004A000414BC90722D13F49086801263040009AD4
:1004B000904205D90868B04308600868C00712D1A7
:1004C0002078400706D50720000219688143E068BC
:1004D000084318601A681007810F3548022912D2A4
:1004E000044650E00126304601B0F0BD61680329A2
:1004F0000DD01A1F02290FD0012912D112689203C0
:100500000646F0D511E0032926D12A4C3BE01A6BB0
:10051000D2030646E7D508E0126892010646E2D506
:1005200003E0126892070646DDD518680326B0433B
:1005300008431860FFF778FE07461C4D1A4B1868F1
:100540000C210140606880008142ACD0FFF76CFE56
:10055000C01BA842F2D9C6E70321CB031249896A1E
:100560000F240C401449095D94021A40240F134DC6
:100570002C5D9A4202D033049A4200E00D4800F00C
:1005800005FF4443084B18680006000F0C49085C3F
:10059000C4400E48046000263046FFF761FE304636
:1005A00001B0F0BD0020024004100240881300009A
:1005B00000127A00006CDC02A215000892150008F7
:1005C00082150008014800687047C04608000020F6
:1005D000F0B587B004460120002C00D142E204901F
:1005E0002078C007F84E05940CD071680C200140AB
:1005F000042900D090E03068800303D560680028AB
:1006000000D120E12078800721D570680007800F95
:100610000ED070680C210140082900D09DE0032015
:10062000C003716801400120C003814200D094E002
:1006300030688007059C03D5E068012800D002E1FE
:100640003068F82188432169C90001433160059C65
:100650002078000724D42078400737D42078C006BB
:1006600000D4D3E005984069411D00D1C2E00128C3
:1006700000D02FE1706B042101437163706B012185
:1006800001437163FFF7D0FD0546706B800700D50D
:10069000B4E0FFF7C9FD411B03200229F5D9E1E1D0
:1006A000706AE169002900D181E00121084370628C
:1006B000FFF7BAFD0546706A8007CCD4FFF7B4FD9A
:1006C000401B0228F7D9032007B0F0BD012003909A
:1006D0000107F0690840029006D1F0690843F06113
:1006E000F0690840069006980191DF4F3868C00510
:1006F0004AD403980402386820433860FFF794FD19
:100700000546386820423FD1FFF78EFD401B642824
:10071000F7D9032007B0F0BD71680140082908D15E
:100720000320C0037168014001200004814200D110
:1007300061E7616801204704002900D116E105291D
:1007400000D12AE1012900D12BE1010432688A435A
:10075000326081043068884326E13068059CE16896
:10076000002936D0012108433060FFF75DFD0546C2
:100770003068800700D563E7FFF756FD401B02286D
:10078000F6D9032007B0F0BD05988068002800D195
:10079000B5E0052800D1C8E0012800D1C9E0306AE1
:1007A000039988433062306A04218843C4E0012100
:1007B00088437062FFF738FD0546706A800700D4F1
:1007C00049E7FFF731FD401B0228F6D9032007B0A7
:1007D000F0BD012188433060FFF726FD05463068F3
:1007E000800700D433E7FFF71FFD411B03200229D8
:1007F000F5D937E1706B042188437063706BF82181
:10080000884305998969C900014371630598007897
:1008100080060BD571680C2001400C2939D1706B12
:10082000C00303D50598006A01280CD10598446AD5
:10083000002C00D1DFE070680C210140082905D1AF
:10084000012C00D0C2E0049807B0F0BD01200206E0
:1008500031680492914331604706FFF7E5FC054695
:10086000022C0BD1049C3068384200D1DBE0FFF74A
:10087000DBFC411B03200229F5D9F3E03068384244
:1008800000D1B8E0FFF7D0FC411B03200229F5D9C5
:10089000E8E071680140082905D10320C0037168B0
:1008A00001408142BBD0706B0599096A002900D1D3
:1008B000A7E001210C0420437063FFF7B5FC054657
:1008C000706B2042B2D1FFF7AFFC411B032002291D
:1008D000F6D9C7E0706B042101437163706B01218D
:1008E00088437063FFF7A0FC0546706B80078DD5C9
:1008F000FFF79AFC411B03200229F6D9B2E0306AC7
:10090000039988433062306A042188433062574C2F
:10091000FFF78AFC0546306A80071DD5FFF784FC87
:10092000411B0320A142F6D99CE0306A0421014317
:100930003162306A0399084330624C4CFFF774FC13
:100940000546306A800707D4FFF76EFC401BA042C3
:10095000F7D9032007B0F0BD02980028059C00D00D
:100960007CE6F06901998843F06177E6010432681A
:100970008A4332608004316881433160FFF754FC60
:100980000546059C3068384200D13BE6FFF74CFC39
:10099000411B03206429F5D964E0810432680A43CD
:1009A00032600104306808433060FFF73DFC0546C3
:1009B0003068384200D025E6FFF736FC401B64283B
:1009C000F6D9032007B0F0BD001002400320C20397
:1009D00070680240F16A059CA36A9A42049D0DD199
:1009E0000F221140236B994208D191040840E16A1B
:1009F0008842284636D1002007B0F0BD284607B00F
:100A0000F0BD01210C04A0437063FFF70DFC054607
:100A1000706B204200D109E7FFF706FC411B032061
:100A20000229F5D91EE0F06A0F218843059A116B5F
:100A30000143F1627B20C00371688143D06A08439F
:100A4000916A01437160306820433060FFF7ECFB2E
:100A5000044630683842CED1FFF7E6FB011B032085
:100A60000229F6D907B0F0BD0070004088130000DD
:100A7000401E010E01D0012070470749074A50600F
:100A8000074803680B4003218907591801600020BB
:100A90009060072111607047FFFFFF0010E000E049
:100AA00020ED00E0FEE7FEE77047704780B5FFF7F6
:100AB000BFFB80BD70470000B0B5104D2A6812061C
:100AC00001D52022AA816238102800D9FEE1400019
:100AD00078448088400087441300F901F901F90146
:100AE000F9018900F901F901F901F901F901F901A7
:100AF000F901FF00F901F9017501C0461C480040E9
:100B00002868000601D56220A881302900D16DE255
:100B1000312900D16DE2322900D098E2E948EA4952
:100B20000B68802213430B600B6813430B600B6848
:100B300013430B600B6813430B600B6813430B608C
:100B40000B6813430B600B6813430B600B68134374
:100B50000B600B6813430B600B6813430B600B684F
:100B600013430B600B6813430B600B6813430B605C
:100B70000B6813430B600B6813430B600B68134344
:100B80000B600B6813430B600B6813430B600B681F
:100B900013430B600B6813430B600B6813430B602C
:100BA0000B6813430B600B6813430B600B68134314
:100BB0000B600B6813430B600B6813430B600B68EF
:100BC00013430B600B6813430B600B6813430B60FC
:100BD0000B6813430B600B6813430B600B681343E4
:100BE0000B6020389CD10120C20560E12868000616
:100BF00001D56720A881302900D1FEE1312900D13B
:100C0000FEE1322900D022E201204202AD4BAE4982
:100C10000C6814430C600C6814430C600C6814439B
:100C20000C600C6814430C600C6814430C600C6876
:100C300014430C600C6814430C600C6814430C6083
:100C40000C6814430C600C6814430C600C6814436B
:100C50000C600C6814430C600C6814430C600C6846
:100C600014430C600C6814430C600C6814430C6053
:100C70000C6814430C600C6814430C600C6814433B
:100C80000C600C6814430C600C6814430C600C6816
:100C900014430C600C6814430C600C6814430C6023
:100CA0000C6814430C600C6814430C600C6814430B
:100CB0000C600C6814430C600C6814430C600C68E6
:100CC00014430C600C6814430C600C6814430C60F3
:100CD000203B9DD14206EAE02868000601D56F203E
:100CE000A881302900D18EE1312900D18EE132294D
:100CF00000D0ACE101200202D54BD6490C68144368
:100D00000C600C6814430C600C6814430C600C6895
:100D100014430C600C6814430C600C6814430C60A2
:100D20000C6814430C600C6814430C600C6814438A
:100D30000C600C6814430C600C6814430C600C6865
:100D400014430C600C6814430C600C6814430C6072
:100D50000C6814430C600C6814430C600C6814435A
:100D60000C600C6814430C600C6814430C600C6835
:100D700014430C600C6814430C600C6814430C6042
:100D80000C6814430C600C6814430C600C6814432A
:100D90000C600C6814430C600C6814430C600C6805
:100DA00014430C600C6814430C600C6814430C6012
:100DB0000C6814430C600C6814430C60203B9DD1FC
:100DC000020674E02868000601D57220A881302947
:100DD00000D122E1312900D12CE1322900D036E1C5
:100DE0009B489C490B68402213430B600B681343DC
:100DF0000B600B6813430B600B6813430B600B68AD
:100E000013430B600B6813430B600B6813430B60B9
:100E10000B6813430B600B6813430B600B681343A1
:100E20000B600B6813430B600B6813430B600B687C
:100E300013430B600B6813430B600B6813430B6089
:100E40000B6813430B600B6813430B600B68134371
:100E50000B600B6813430B600B6813430B600B684C
:100E600013430B600B6813430B600B6813430B6059
:100E70000B6813430B600B6813430B600B68134341
:100E80000B600B6813430B600B6813430B600B681C
:100E900013430B600B6813430B600B6813430B6029
:100EA0000B6813430B6020389CD1012082050B682E
:100EB00013430B60FFF7A8F92868000600D4C6E0CA
:100EC0000224C3E080969800180800483220FFF7FB
:100ED0009BF92868000601D54520A8813220FFF73C
:100EE00093F92868000601D57220A8813220FFF707
:100EF0008BF92868000601D57220A8813220FFF7FF
:100F000083F92868000601D56F20A8813220FFF7F9
:100F10007BF92868000601D57220A8813220FFF7EE
:100F200073F92868000601D52E20A8813220FFF72A
:100F30006BF92868000601D52020A8813220FFF730
:100F400063F92868000601D55420A8813220FFF7F4
:100F50005BF92868000601D57220A8813220FFF7CE
:100F600053F92868000601D57920A8813220FFF7BF
:100F70004BF92868000601D52020A8813220FFF710
:100F800043F92868000601D56120A8813220FFF7C7
:100F90003BF92868000601D56720A8813220FFF7B9
:100FA00033F92868000601D56120A8813220FFF7B7
:100FB0002BF92868000601D56920A8813220FFF7A7
:100FC00023F92868000601D56E20A8813220FFF79A
:100FD0001BF92868000601D52E20A8813220FFF7D2
:100FE00013F92868000632D50A242FE00120C10534
:100FF00015E01848016880221FE0012041060EE03C
:101000000124600204E00120010608E0012420021E
:1010100010490A6802430A6012E0012081050D4A66
:1010200013680B431360FFF7EFF8286800060ED52E
:1010300000240BE00748016840220A4302600124B3
:101040002046FFF7E1F82868000600D5AC81B0BD66
:101050008096980018080048B9480168890616D596
:10106000BA498B680289012B09D14A6000228A6043
:101070000122CA6049680268120608D506E00A60C3
:1010800001228A6009680268120600D581817047D2
:101090009AB0FFF7D7F80025109511951495139580
:1010A00012950F950E950120159022210D911995FD
:1010B00001051891C1031791022416941090102075
:1010C0001190079506950595049503950DA8FFF7D2
:1010D0007FFA002803D0EFF3108072B6FEE70C957C
:1010E0000B950A940720099009A801263146FFF7BD
:1010F000ADF9002803D0EFF3108072B6FEE7089533
:101100007004029002A8FFF7FDF8002803D0EFF367
:10111000108072B6FEE70195F0047F490A68024329
:101120000A60B40488682043886031037B48026801
:101130000A43026001687A4A11400160B103026803
:101140000A4302600168774A114001603104036874
:101150000B4303600168744A114001600168214338
:1011600001600168714C2140016041684025A9433C
:10117000416041688025A9434160310245688D4343
:101180004560710245688D4345608568684A154031
:1011900085608568674F3D4085608568664B1D406A
:1011A00085608168654D29408160C1681140C160DA
:1011B000C1685B4A1140C160C1683940C160C16803
:1011C000584A1140C160C1681940C160C168564A9F
:1011D0001140C160C1682940C160C1682140C1603F
:1011E0000F21090202688A43026005214902026850
:1011F0000A430260FF242104026A8A430262112129
:101200000904026A0A430262FFF7DCF9E12149029C
:1012100000F0BCF84A4F3946103908607007494958
:101220000860200248490A6882430A6038461C3830
:1012300001680C220A430260016820220A4302600E
:1012400001680096314301600A20FEF7DDFF38682F
:10125000000601D54320B8810A20FEF7D5FF386883
:10126000000601D54D20B8810A20FEF7CDFF386871
:10127000000601D54420B8810A20FEF7C5FF386872
:10128000000601D53F20B8810A252846FEF7BCFF9D
:101290003868000600D5BD812C4D01E0FFF70CFC3D
:1012A000E8680028FCD028686968019AEA602A6822
:1012B000722A08D02A68622A05D02A686F2A02D0CA
:1012C0002A68672A18D16A68302AE7D06A68312A02
:1012D000E4D06A68322AE1D04524012604E024A043
:1012E000845D761C1A2EDBD03220FEF78DFF386825
:1012F0000006F4D5BC81F2E74526009C04E014A06A
:10130000065D641C1E2CCBD03220FEF77DFF3868B2
:101310000006F4D5BE81F2E7141002400008004830
:10132000FFDFFFFFFF7FFFFFFFFFFDFFFFFFF7FF77
:10133000FFEFFFFFFFBFFFFFFFFFFEFFFFFFFBFF12
:101340001C48004000E100E01CE400E070000020C8
:101350004572726F722E204F6E6C79202772272093
:1013600027622720276F27202767272E0A000000E3
:101370004572726F722E204F6E6C792027302720B5
:10138000273127202732272E0A00000043088B42EE
:101390001AD3002203098B4279D3030A8B425ED30E
:1013A000030B8B4242D3030C8B4227D30902FF224B
:1013B00012BA030C8B4202D31212090203D0030BA0
:1013C0008B4233D31AE0D3E0411A8041401C70476E
:1013D00003460B4371D443088B42F5D30022030923
:1013E0008B4254D3030A8B4239D3030B8B421DD358
:1013F000030C8B4202D394466EE0090AC30B8B4266
:1014000001D3CB03C01A5241830B8B4201D38B0310
:10141000C01A5241430B8B4201D34B03C01A5241B5
:10142000030B8B4201D30B03C01A5241C30A8B42F8
:1014300001D3CB02C01A5241830A8B4201D38B02E3
:10144000C01A5241430A8B4201D34B02C01A524187
:10145000030A8B4201D30B02C01A5241CDD2C309F9
:101460008B4201D3CB01C01A524183098B4201D375
:101470008B01C01A524143098B4201D34B01C01A60
:10148000524103098B4201D30B01C01A5241C308D8
:101490008B4201D3CB00C01A524183088B4201D347
:1014A0008B00C01A524143088B4201D34B00C01A33
:1014B0005241411A524110007047CA0F00D04942B0
:1014C000031000D34042534000229C4603098B4244
:1014D0002DD3030A8B4212D38901FC2212BA030ACC
:1014E0008B420CD3890192118B4208D3890192114E
:1014F0008B4204D3890137D0921100E08909C309D6
:101500008B4201D3CB01C01A524183098B4201D3D4
:101510008B01C01A524143098B4201D34B01C01ABF
:10152000524103098B4201D30B01C01A5241C30837
:101530008B4201D3CB00C01A524183088B4201D3A6
:101540008B00C01A5241D9D243088B4201D34B00C1
:10155000C01A5241411A00D2014652411046634618
:101560005B1000D34042704763465B1000D340429B
:1015700001B50021004201D0C9430846C046C0461B
:1015800002BD000000000000000001020304060785
:10159000080902030405060708090A0B0C0D0E0FC3
:1015A00010100102030405060708090A0B0C0D0EB2
:1015B0000F100000D81500080000002010000000E7
:1015C00004010008E815000810000020780600005B
:1015D00020010008000000000100000004000000DD
:0815E00000127A000000000077
:04000005080000C12E
:00000001FF
