:020000040800F2
:100000007806002075010008A9190008C90B00082E
:1000100000000000000000000000000000000000E0
:10002000000000000000000000000000D5200008D3
:100030000000000000000000AB190008D7200008F5
:100040008701000887010008870100088701000870
:100050008701000887010008870100088701000860
:100060008701000887010008870100088701000850
:100070008701000887010008870100088701000840
:100080008701000887010008870100088701000830
:100090008701000887010008870100088701000820
:1000A0008701000887010008870100088701000810
:1000B0008701000887010008870100088701000800
:1000C00000F002F800F046F80CA030C808382418F8
:1000D0002D18671EA246AB4654465D46AC4201D180
:1000E00000F038F87E460F3EB6460FCC012633426C
:1000F00000D0FB1A3343A246AB46184794260000B3
:10010000B4260000103A02D378C878C1FAD8520752
:1001100001D330C830C101D504680C6070470000BD
:100120000023002400250026103A01D378C1FBD813
:10013000520700D330C100D50B60704710B5692954
:1001400002D100F07DF810BD002010BD1FB51FBD0D
:1001500010B510BD00F057F91146FFF7F7FF01F099
:10016000BFFF00F06FF903B4FFF7F2FF03BC00F02C
:1001700075F900000748804707480047FEE7FEE79B
:10018000FEE7FEE7FEE7FEE704480549054A064BA1
:1001900070470000DF200008C10000087800002040
:1001A0007806002078020020780200200FB41CB5E9
:1001B000074B06AA7B4469460090059800F0F7F8C3
:1001C0000020694600F006F91CBC08BC04B01847C2
:1001D0001D020000F8B50E460446002020622046AD
:1001E000E1688847002829D0252802D06268A168E4
:1001F00020E0E16820460027884705001ED02846F9
:100200004138192802D80127FF02203532462046FE
:1002100027602946FFF792FF002808D0012804D064
:10022000F61DF608F6000836D9E7361DD7E76268EE
:100230002846A1689047206A401CCFE7206AF8BD95
:10024000F7B5002575291068009914A611D0C0468D
:10025000C046002802DA404211A608E00099096869
:100260008A0701D50FA602E0490704D50EA601258D
:1002700001E0C046C046009F0024243704E000F09F
:10028000AEF830313955641C0028F8D12B4632467F
:100290002146009800F02DF8FEBD0000000000008F
:1002A0002D0000002B0000002000000001E004C031
:1002B000091F0429FBD28B0701D50280801CC907C6
:1002C00000D00270704700290BD0C30702D0027023
:1002D000401C491E022904D3830702D50280801CDA
:1002E000891EE3E70022EEE70022DFE77047704750
:1002F0007047FFB504460D4681B024300090216858
:10030000880604D51022E0699143216000E00120B5
:10031000A84201DD471B00E000270498A1697A1973
:100320001018081AA0612078C00602D42046C046E2
:10033000C046002608E003986268A168805D904787
:10034000206A401C761C206204988642F3DB2078E9
:10035000C0060AD52046C046C04606E06268A168CD
:1003600030209047206A401C206238467F1E0028BB
:10037000F4DC07E000986268A168405D9047206A5D
:10038000401C206228466D1E0028F3DC2046C04633
:10039000C0462078000602D5022005B0F0BD01203D
:1003A000FBE7000001694A1C02610878704700B54C
:1003B0008FB0029100210591054901937944039181
:1003C000114604906846FFF705FF0FB000BD00001E
:1003D000E5FFFFFF0A681070521C0A607047014673
:1003E0008008081A02091018020A1018020C1018C6
:1003F000C008820012185200891A01E0401C0A3914
:100400000A29FBD27047754600F024F8AE46050075
:1004100069465346C008C000854618B020B5FFF7AE
:10042000B3FE60BCB64600260027C0C5C0C5C0C527
:10043000C0C5C0C5C0C5C0C5C0C5403D490849000C
:100440008D46704710B50446C046C0462046FFF7AB
:100450008AFE10BD00487047100000200149182096
:10046000ABBEFEE72600020070470000B0B50446B0
:1004700000F00CF80546601C02D0214800780419F1
:1004800000F004F8401BA042FAD3B0BD0548006854
:100490007047C0461A48007802490A681018086078
:1004A0007047C0467000002010B5854801681022D2
:1004B0000A4302600024204600F004F800F022F80D
:1004C000204610BD70B504467D20C0000C4E31782A
:1004D00002F048F801468448006802F043F800F052
:1004E00059FB0125032C08D8002806D10025E84334
:1004F00021462A4600F01CF87460284670BDC046AC
:100500000000002082B00948016801221143016007
:100510000168114001910199110742680A43426044
:10052000406808400090009802B0704718100240E0
:10053000002805D40322034693430A4A9A1803E08D
:100540000C220240064BD2188007C00E8901C9B2A6
:100550008140FF2383401068984308431060704730
:1005600014ED00E000E400E0F0B581B0002847D0D1
:100570000446534A1368012003408B4208D2136893
:100580000126B3430B431360126832408A4238D1CC
:10059000009121688A074B4B11D54A0707D50722DE
:1005A0001202484B1B681343464A1360454B1A68B6
:1005B000F0239A43A3681343424A1360414BC9078F
:1005C00022D13F49086801263040009A904205D95F
:1005D0000868B04308600868C00712D12078400757
:1005E00006D50720000219688143E06808431860B7
:1005F0001A681007810F3548022912D2044650E0CC
:100600000126304601B0F0BD616803290DD01A1FE4
:1006100002290FD0012912D1126892030646F0D5A3
:1006200011E0032926D12A4C3BE01A6B92030646BF
:10063000E7D508E0126892010646E2D503E01268A9
:1006400092070646DDD518680326B04308431860B4
:10065000FFF71CFF07461C4D1A4B18680C21014080
:10066000606880008142ACD0FFF710FFC01BA84239
:10067000F2D9C6E70321CB031249896A0F240C4043
:100680001449095D94021A40240F134D2C5D9A42BF
:1006900002D033049A4200E00D4801F063FF444366
:1006A000084B18680006000F0C49085CC4400E484F
:1006B000046000263046FFF705FF304601B0F0BD6C
:1006C00000200240041002408813000000127A004B
:1006D000006CDC027A2700086A2700085A27000805
:1006E000014800687047C04608000020F0B587B098
:1006F00004460120002C00D145E204902078C00778
:10070000F94E05940CD071680C200140042900D0EA
:1007100090E03068800303D56068002800D120E1B4
:100720002078800721D570680007800F0ED0706890
:100730000C210140082900D09DE00320C00371680E
:1007400001400120C003814200D094E0306880075E
:10075000059C03D5E068012800D002E13068F8214B
:1007600088432169C90001433160059C2078000756
:1007700024D42078400737D42078C00600D4D3E0B2
:1007800005984069411D00D1C2E0012800D030E148
:10079000706B042101437163706B0121014371632C
:1007A000FFF774FE0546706B800700D5B4E0FFF7D5
:1007B0006DFE411B03200229F5D9E4E1706AE1696D
:1007C000002900D181E0012108437062FFF75EFE3D
:1007D0000546706A8007CCD4FFF758FE401B0228FC
:1007E000F7D9032007B0F0BD012003900107F0699D
:1007F0000840029006D1F0690843F061F0690840B2
:10080000069006980191E14F3868C0054AD40398D4
:100810000402386820433860FFF738FE0546386820
:1008200020423FD1FFF732FE401B6428F7D9032056
:1008300007B0F0BD71680140082908D10320C0034A
:100840007168014001200004814200D161E76168C4
:1008500001204704002900D117E1052900D12BE12F
:10086000012900D12CE1010432688A4332608104FD
:100870003068884327E13068059CE168002936D05C
:10088000012108433060FFF701FE0546306880070C
:1008900000D563E7FFF7FAFD401B0228F6D90320D5
:1008A00007B0F0BD05988068002800D1B6E00528A3
:1008B00000D1C9E0012800D1CAE0306A0399884319
:1008C0003062306A04218843C5E0012188437062A8
:1008D000FFF7DCFD0546706A800700D449E7FFF7A3
:1008E000D5FD401B0228F6D9032007B0F0BD012139
:1008F00088433060FFF7CAFD05463068800700D4A2
:1009000033E7FFF7C3FD411B03200229F5D93AE184
:10091000706B042188437063706BF82188430599DC
:100920008969C900014371630598007880060BD579
:1009300071680C2001400C2939D1706B800303D5FC
:100940000598006A01280CD10598446A002C00D152
:10095000E1E070680C210140082905D1012C00D08C
:10096000C4E0049807B0F0BD01200206316804928B
:10097000914331604706FFF789FD0546022C0BD1F4
:10098000049C3068384200D1DEE0FFF77FFD411B58
:1009900003200229F5D9F6E03068384200D1BAE0E8
:1009A000FFF774FD411B03200229F5D9EBE07168C4
:1009B0000140082905D10320C0037168014081422C
:1009C000BBD0706B0599096A002900D1A9E001210B
:1009D0000A04104370634C04FFF758FD0546706B22
:1009E0002042B1D1FFF752FD411B03200229F6D965
:1009F000C9E0706B042101437163706B012188436E
:100A00007063FFF743FD0546706B80078CD5FFF7D9
:100A10003DFD411B03200229F6D9B4E0306A039959
:100A200088433062306A042188433062584CFFF7B3
:100A30002DFD0546306A80071DD5FFF727FD411BB8
:100A40000320A142F6D99EE0306A042101433162BD
:100A5000306A0399084330624D4CFFF717FD054695
:100A6000306A800707D4FFF711FD401BA042F7D979
:100A7000032007B0F0BD02980028059C00D07BE65B
:100A8000F06901998843F06176E6010432688A438F
:100A900032608004316881433160FFF7F7FC05461E
:100AA000059C3068384200D13AE6FFF7EFFC411B65
:100AB00003206429F5D966E0810432680A43326074
:100AC0000104306808433060FFF7E0FC05463068F9
:100AD000384200D024E6FFF7D9FC401B6428F6D941
:100AE000032007B0F0BDC046001002400320C2033F
:100AF00070680240F16A059CA36A9A42049D0DD178
:100B00000F221140236B994208D191040840E16AF9
:100B10008842284637D1002007B0F0BD284607B0EC
:100B2000F0BD01210A04904370634C04FFF7AEFC52
:100B30000546706B204200D106E7FFF7A7FC411B7A
:100B400003200229F5D91EE0F06A0F218843059A97
:100B5000116B0143F1627B20C00371688143D06A4D
:100B60000843916A01437160306820433060FFF7A9
:100B70008DFC044630683842CDD1FFF787FC011B5D
:100B800003200229F6D907B0F0BDC046007000402E
:100B900088130000401E010E01D001207047074954
:100BA000074A5060074803680B400321890759181A
:100BB000016000209060072111607047FFFFFF0077
:100BC00010E000E020ED00E0FEE70000F0B58DB0A1
:100BD0000D270124E04EE1A506E00120FFF746FCC9
:100BE0002F5D641C192C07D030680006F5D5012054
:100BF000FFF73CFCB781F0E769200121002200F0FB
:100C0000F1FC03E00220C7433C420AD101F01EF987
:100C100004460028F6D169200121002200F0E2FC00
:100C2000F0E7D549292048603068000604D5012046
:100C3000FFF71CFC3020B0810120FFF717FC306863
:100C4000000604D50120FFF711FC7820B0810120B7
:100C5000FFF70CFC3068000604D50120FFF706FC06
:100C60003220B0810120FFF701FC3068000604D576
:100C70000120FFF7FBFB3920B0810120FFF7F6FBD5
:100C80003068000604D50120FFF7F0FB0D20B0818D
:100C90000120FFF7EBFB3068000604D50120FFF7C9
:100CA000E5FB0A20B0810120FFF7E0FB00F0BCFF6C
:100CB0000228FBD06924012120460A4600F092FC5C
:100CC00001E03D420AD100F071FE05460028F8D14E
:100CD000692001210A4600F085FCF2E7FC4805681E
:100CE0003068000604D50120FFF7C0FB4720B08123
:100CF0000120FFF7BBFB3068000604D50120FFF799
:100D0000B5FB6F20B0810120FFF7B0FB3068000613
:100D100004D50120FFF7AAFB7420B0810120FFF762
:100D2000A5FB3068000604D50120FFF79FFB2020BB
:100D3000B0810120FFF79AFB3068000604D501203E
:100D4000FFF794FB5820B0810120FFF78FFB30683C
:100D5000000604D50120FFF789FB2020B081012087
:100D6000FFF784FB3068000604D50120FFF77EFB07
:100D70006620B0810120FFF779FB3068000603D5BB
:100D80000120FFF773FBB4810120FFF76FFB306890
:100D9000000604D50120FFF769FB7220B081012015
:100DA000FFF764FB3068000604D50120FFF75EFB07
:100DB0007320B0810120FFF759FB3068000604D58D
:100DC0000120FFF753FB7420B0810120FFF74EFB99
:100DD0003068000604D50120FFF748FB2020B081D1
:100DE0000120FFF743FB3068000604D50120FFF720
:100DF0003DFB3820B0810120FFF738FB306800064A
:100E000004D50120FFF732FB2020B0810120FFF73D
:100E10002DFB3068000604D50120FFF727FB622078
:100E2000B0810120FFF722FB3068000603D50120C6
:100E3000FFF71CFBB4810120FFF718FB30680006A8
:100E400004D50120FFF712FB7420B0810120FFF7C9
:100E50000DFB3068000604D50120FFF707FB732067
:100E6000B0810120FFF702FB3068000604D50120A5
:100E7000FFF7FCFA0D20B0810120FFF7F7FA306888
:100E8000000604D50120FFF7F1FA0A20B081012401
:100E90002046FFF7EBFA69200022214600F0A2FB72
:100EA00028208B4948603068000604D50120FFF7F0
:100EB000DDFA3020B0810120FFF7D8FA3068000653
:100EC00004D50120FFF7D2FA7820B0810120FFF786
:100ED000CDFA3068000604D50120FFF7C7FA3220AA
:100EE000B0810120FFF7C2FA3068000604D5012066
:100EF000FFF7BCFA3820B0810120FFF7B7FA30685D
:100F0000000604D50120FFF7B1FA0D20B0810120C1
:100F1000FFF7ACFA3068000604D50120FFF7A6FA07
:100F20000A20B0810120FFF7A1FA00F07DFE02281F
:100F3000FBD0692001210A4600F054FB01E03C424D
:100F40001CD100F033FD04460028F8D169200121AE
:100F50000A4600F047FBF2E71C4800400D0A0D0A64
:100F60003E3E3E4932435F4779726F5F526561642E
:100F70005F580D0A00000000245800402802544920
:100F8000096801430CB2684652492246FFF70EF940
:100F90003068000604D50120FFF768FA5820B081B8
:100FA0000120FFF763FA3068000604D50120FFF73F
:100FB0005DFA2D20B0810120FFF758FA3068000655
:100FC00004D50120FFF752FA7620B0810120FFF707
:100FD0004DFA3068000604D50120FFF747FA61207A
:100FE000B0810120FFF742FA3068000604D50120E5
:100FF000FFF73CFA6C20B0810120FFF737FA306828
:10100000000604D50120FFF731FA7520B0810120D8
:10101000FFF72CFA3068000604D50120FFF726FA06
:101020006520B0810120FFF721FA3068000604D561
:101030000120FFF71BFA3A20B0810120FFF716FAD2
:101040003068000604D50120FFF710FA2020B08197
:101050000120FFF70BFA3068000604D50120FFF7E6
:1010600005FA2020B0810120FFF700FA68460778D2
:10107000002F13D06846451C07E00120FFF7F6F962
:10108000681C2F78002F054608D030680006F4D57C
:101090000120FFF7EBF9F8B2B081EEE73068000607
:1010A00004D50120FFF7E2F90D20B0810120FFF700
:1010B000DDF93068000604D50120FFF7D7F90A20D2
:1010C000B0810120FFF7D2F920460DB0F0BDC04637
:1010D000245800408A270008F0B58DB00D27012460
:1010E000E04EE1A506E00120FFF7C0F92F5D641C8A
:1010F000192C07D030680006F5D50120FFF7B6F9A6
:10110000B781F0E769200121002200F06BFA03E0CB
:101110000220C7433C420AD100F098FE0446002852
:10112000F6D169200121002200F05CFAF0E7D549F0
:101130002B2048603068000604D50120FFF796F99F
:101140003020B0810120FFF791F93068000604D506
:101150000120FFF78BF97820B0810120FFF786F995
:101160003068000604D50120FFF780F93220B081F5
:101170000120FFF77BF93068000604D50120FFF756
:1011800075F94220B0810120FFF770F93068000640
:1011900004D50120FFF76AF90D20B0810120FFF787
:1011A00065F93068000604D50120FFF75FF90A20D1
:1011B000B0810120FFF75AF900F036FD0228FBD07C
:1011C0006924012120460A4600F00CFA01E03D4264
:1011D0000AD100F0EBFB05460028F8D16920012177
:1011E0000A4600F0FFF9F2E7FC480568306800069F
:1011F00004D50120FFF73AF94720B0810120FFF71D
:1012000035F93068000604D50120FFF72FF96F206B
:10121000B0810120FFF72AF93068000604D50120CB
:10122000FFF724F97420B0810120FFF71FF930681F
:10123000000604D50120FFF719F92020B081012014
:10124000FFF714F93068000604D50120FFF70EF906
:101250005920B0810120FFF709F93068000604D554
:101260000120FFF703F92020B0810120FFF7FEF8ED
:101270003068000604D50120FFF7F8F86620B08139
:101280000120FFF7F3F83068000603D50120FFF7CF
:10129000EDF8B4810120FFF7E9F83068000604D5C5
:1012A0000120FFF7E3F87220B0810120FFF7DEF89C
:1012B0003068000604D50120FFF7D8F87320B0810C
:1012C0000120FFF7D3F83068000604D50120FFF7AE
:1012D000CDF87420B0810120FFF7C8F8306800060F
:1012E00004D50120FFF7C2F82020B0810120FFF7CC
:1012F000BDF83068000604D50120FFF7B7F83820A4
:10130000B0810120FFF7B2F83068000604D5012053
:10131000FFF7ACF82020B0810120FFF7A7F8306874
:10132000000604D50120FFF7A1F86220B08101205A
:10133000FFF79CF83068000603D50120FFF796F808
:10134000B4810120FFF792F83068000604D501202F
:10135000FFF78CF87420B0810120FFF787F8306820
:10136000000604D50120FFF781F87320B081012029
:10137000FFF77CF83068000604D50120FFF776F807
:101380000D20B0810120FFF771F83068000604D508
:101390000120FFF76BF80A20B08101242046FFF7F7
:1013A00065F869200022214600F01CF92A208B49AB
:1013B00048603068000604D50120FFF757F8302058
:1013C000B0810120FFF752F83068000604D50120F3
:1013D000FFF74CF87820B0810120FFF747F830681C
:1013E000000604D50120FFF741F83220B08101202A
:1013F000FFF73CF83068000604D50120FFF736F807
:101400004120B0810120FFF731F83068000604D593
:101410000120FFF72BF80D20B0810120FFF726F8FF
:101420003068000604D50120FFF720F80A20B081BB
:101430000120FFF71BF800F0F7FB0228FBD0692022
:1014400001210A4600F0CEF801E03C421CD100F038
:10145000ADFA04460028F8D1692001210A4600F0BF
:10146000C1F8F2E71C4800400D0A0D0A3E3E3E4915
:1014700032435F4779726F5F526561645F590D0A4D
:101480000000000024580040280254490968014324
:101490000CB2684652492246FEF788FE30680006C4
:1014A00004D50120FEF7E2FF5920B0810120FEF7AC
:1014B000DDFF3068000604D50120FEF7D7FF2D20A0
:1014C000B0810120FEF7D2FF3068000604D501206C
:1014D000FEF7CCFF7620B0810120FEF7C7FF306811
:1014E000000604D50120FEF7C1FF6120B081012074
:1014F000FEF7BCFF3068000604D50120FEF7B6FFFA
:101500006C20B0810120FEF7B1FF3068000604D5E1
:101510000120FEF7ABFF7520B0810120FEF7A6FF8A
:101520003068000604D50120FEF7A0FF6520B081D9
:101530000120FEF79BFF3068000604D50120FEF76E
:1015400095FF3A20B0810120FEF790FF3068000639
:1015500004D50120FEF78AFF2020B0810120FEF78C
:1015600085FF3068000604D50120FEF77FFF2020AC
:10157000B0810120FEF77AFF68460778002F13D06C
:101580006846451C07E00120FEF770FF681C2F78B5
:10159000002F054608D030680006F4D50120FEF77C
:1015A00065FFF8B2B081EEE73068000604D501208F
:1015B000FEF75CFF0D20B0810120FEF757FF306879
:1015C000000604D50120FEF751FF0A20B08101205A
:1015D000FEF74CFF20460DB0F0BDC0462458004039
:1015E0008A270008F0B583B0154602910190EB4EB2
:1015F0003068000604D50120FEF738FF4920B0818D
:101600000120FEF733FF3068000604D50120FEF705
:101610002DFF6E20B0810120FEF728FF3068000604
:1016200004D50120FEF722FF6920B0810120FEF7DA
:101630001DFF3068000604D50120FEF717FF742057
:10164000B0810120FEF712FF3068000604D50120AA
:10165000FEF70CFF6920B0810120FEF707FF30681C
:10166000000604D50120FEF701FF6120B0810120B2
:10167000FEF7FCFE3068000604D50120FEF7F6FEFA
:101680006C20B0810120FEF7F1FE3068000604D521
:101690000120FEF7EBFE6920B0810120FEF7E6FE97
:1016A0003068000604D50120FEF7E0FE7A20B08104
:1016B0000120FEF7DBFE3068000604D50120FEF7AE
:1016C000D5FE6520B0810120FEF7D0FE306800060F
:1016D00004D50120FEF7CAFE5F20B0810120FEF78D
:1016E000C5FE3068000604D50120FEF7BFFE492084
:1016F000B0810120FEF7BAFE3068000604D5012053
:10170000FEF7B4FE3220B0810120FEF7AFFE306854
:10171000000604D50120FEF7A9FE4320B081012078
:10172000FEF7A4FE3068000604D50120FEF79EFEF9
:101730005F20B0810120FEF799FE3068000604D5D5
:101740000120FEF793FE5420B0810120FEF78EFEAB
:101750003068000604D50120FEF788FE5820B081CD
:101760000120FEF783FE3068000604D50120FEF755
:101770007DFE5220B0810120FEF778FE3068000621
:1017800004D50120FEF772FE5820B0810120FEF73B
:101790006DFE3068000604D50120FEF767FE0D20BF
:1017A000B0810120FEF762FE3068000604D50120FA
:1017B000FEF75CFE0A20B08101242046FEF756FEAB
:1017C000774F3868774901403960019840000299A5
:1017D00009040143386808433860012D66D0002DA4
:1017E00000D0D5E0A0023968814339603068000636
:1017F00004D50120FEF73AFE5320B0810120FEF708
:1018000035FE3068000604D50120FEF72FFE652066
:10181000B0810120FEF72AFE3068000604D50120C1
:10182000FEF724FE7420B0810120FEF71FFE306811
:10183000000604D50120FEF719FE2020B08101200A
:10184000FEF714FE3068000604D50120FEF70EFEF8
:101850005720B0810120FEF709FE3068000604D54C
:101860000120FEF703FE7220B0810120FEF7FEFD8D
:101870003068000604D50120FEF7F8FD6920B0812C
:101880000120FEF7F3FD3068000604D50120FEF7C5
:10189000EDFD7420B0810120FEF7E8FD3068000600
:1018A0005DD50120FEF7E2FD652057E0A002396812
:1018B000014339603068000604D50120FEF7D6FDEB
:1018C0005320B0810120FEF7D1FD3068000604D519
:1018D0000120FEF7CBFD6520B0810120FEF7C6FD9B
:1018E0003068000604D50120FEF7C0FD7420B081E9
:1018F0000120FEF7BBFD3068000604D50120FEF78D
:10190000B5FD2020B0810120FEF7B0FD3068000653
:1019100004D50120FEF7AAFD5220B0810120FEF778
:10192000A5FD3068000604D50120FEF79FFD652067
:10193000B0810120FEF79AFD3068000604D5012031
:10194000FEF794FD6120B0810120FEF78FFD306825
:10195000000604D50120FEF789FD6420B081012036
:10196000FEF784FD3068000604D50120FEF77EFDF9
:101970000D20B0810120FEF779FD3068000604D506
:101980000120FEF773FD0A20B0810120FEF76EFDF5
:10199000600339680143396003B0F0BD1C48004062
:1019A0000458004000F800FFFEE77047F0B581B032
:1019B000894F3868000604D50120FEF757FD5020F6
:1019C000B8810120FEF752FD3868000604D50120D9
:1019D000FEF74CFD6F20B8810120FEF747FD386807
:1019E000000604D50120FEF741FD6C20B8810120DE
:1019F000FEF73CFD3868000604D50120FEF736FDF1
:101A00006C20B8810120FEF731FD3868000604D54E
:101A10000120FEF72BFD5F20B8810120FEF726FD97
:101A20003868000604D50120FEF720FD4920B88162
:101A30000120FEF71BFD3868000604D50120FEF7E3
:101A400015FD3220B8810120FEF710FD3868000630
:101A500004D50120FEF70AFD4320B8810120FEF7DE
:101A600005FD3868000604D50120FEF7FFFC5F2065
:101A7000B8810120FEF7FAFC3868000604D5012081
:101A8000FEF7F4FC5220B8810120FEF7EFFC386825
:101A9000000604D50120FEF7E9FC5820B88101209A
:101AA000FEF7E4FC3868000604D50120FEF7DEFCF2
:101AB0005F20B8810120FEF7D9FC3868000604D504
:101AC0000120FEF7D3FC5320B8810120FEF7CEFCA5
:101AD0003868000604D50120FEF7C8FC7420B881E0
:101AE0000120FEF7C3FC3868000604D50120FEF78C
:101AF000BDFC6120B8810120FEF7B8FC3868000603
:101B000004D50120FEF7B2FC7420B8810120FEF755
:101B1000ADFC3868000604D50120FEF7A7FC75204F
:101B2000B8810120FEF7A2FC3868000604D5012028
:101B3000FEF79CFC7320B8810120FEF797FC386803
:101B4000000604D50120FEF791FC0D20B88101208C
:101B5000FEF78CFC3868000604D50120FEF786FCF1
:101B60000A20B88101242046FEF780FC1B4801684A
:101B7000490706D40068C00616D40225284601B0DD
:101B8000F0BD432608E001252846FEF76FFC14A0AF
:101B9000065D641C1B2CF1D038680006F3D50120CB
:101BA000FEF764FCBE81EEE74326012413A506E0A0
:101BB0000120FEF75BFC2E5D641C292C07D03868E1
:101BC0000006F5D50120FEF751FCBE81F0E70025A7
:101BD000284601B0F0BDC0461C48004018580040DF
:101BE000436865636B65642052584E45202D2D2057
:101BF000616C6C20676F6F640D0A00004368656359
:101C00006B6564204E41434B46202D2074686572FD
:101C1000652077617320616E2061636B206572724D
:101C20006F720D0A00000000F0B581B07C4F38687B
:101C3000000604D50120FEF719FC5020B8810120D0
:101C4000FEF714FC3868000604D50120FEF70EFCF0
:101C50006F20B8810120FEF709FC3868000604D522
:101C60000120FEF703FC6C20B8810120FEF7FEFB8B
:101C70003868000604D50120FEF7F8FB6C20B88117
:101C80000120FEF7F3FB3868000604D50120FEF7BB
:101C9000EDFB5F20B8810120FEF7E8FB3868000605
:101CA00004D50120FEF7E2FB4920B8810120FEF7B0
:101CB000DDFB3868000604D50120FEF7D7FB322093
:101CC000B8810120FEF7D2FB3868000604D5012058
:101CD000FEF7CCFB4320B8810120FEF7C7FB386834
:101CE000000604D50120FEF7C1FB5F20B88101206A
:101CF000FEF7BCFB3868000604D50120FEF7B6FBF2
:101D00005420B8810120FEF7B1FB3868000604D5E5
:101D10000120FEF7ABFB4320B8810120FEF7A6FBB4
:101D20003868000604D50120FEF7A0FB5F20B881CB
:101D30000120FEF79BFB3868000604D50120FEF762
:101D400095FB5320B8810120FEF790FB3868000610
:101D500004D50120FEF78AFB7420B8810120FEF72C
:101D600085FB3868000604D50120FEF77FFB612063
:101D7000B8810120FEF77AFB3868000604D50120FF
:101D8000FEF774FB7420B8810120FEF76FFB386802
:101D9000000604D50120FEF769FB7520B8810120FB
:101DA000FEF764FB3868000604D50120FEF75EFBF1
:101DB0007320B8810120FEF759FB3868000604D56E
:101DC0000120FEF753FB0D20B8810120FEF74EFBEA
:101DD0003868000604D50120FEF748FB0A20B881C8
:101DE00001242046FEF742FB0E480068400603D45B
:101DF0000224204601B0F0BD0026432508E020461D
:101E0000FEF734FB08A080194578761C202EF0D010
:101E100038680006F3D50120FEF728FBBD81EEE708
:101E20001C48004018580040436865636B65642097
:101E30005443202D207472616E7366657220636F47
:101E40006D706C6574650D0A00000000F0B581B01E
:101E50008C4C2068000604D50120FEF707FB5020BB
:101E6000A0810120FEF702FB2068000604D50120B6
:101E7000FEF7FCFA6F20A0810120FEF7F7FA206838
:101E8000000604D50120FEF7F1FA6C20A0810120A4
:101E9000FEF7ECFA2068000604D50120FEF7E6FA0A
:101EA0006C20A0810120FEF7E1FA2068000604D52D
:101EB0000120FEF7DBFA5F20A0810120FEF7D6FAB1
:101EC0002068000604D50120FEF7D0FA4920A08141
:101ED0000120FEF7CBFA2068000604D50120FEF7AA
:101EE000C5FA3220A0810120FEF7C0FA2068000662
:101EF00004D50120FEF7BAFA4320A0810120FEF7A5
:101F0000B5FA2068000604D50120FEF7AFFA5F207D
:101F1000A0810120FEF7AAFA2068000604D501205E
:101F2000FEF7A4FA5420A0810120FEF79FFA206852
:101F3000000604D50120FEF799FA5820A08101205F
:101F4000FEF794FA2068000604D50120FEF78EFA09
:101F50005F20A0810120FEF789FA2068000604D5E1
:101F60000120FEF783FA5320A0810120FEF77EFABC
:101F70002068000604D50120FEF778FA7420A081BD
:101F80000120FEF773FA2068000604D50120FEF751
:101F90006DFA6120A0810120FEF768FA2068000632
:101FA00004D50120FEF762FA7420A0810120FEF71B
:101FB0005DFA2068000604D50120FEF757FA752067
:101FC000A0810120FEF752FA2068000604D5012006
:101FD000FEF74CFA7320A0810120FEF747FA206833
:101FE000000604D50120FEF741FA0D20A081012052
:101FF000FEF73CFA2068000604D50120FEF736FA09
:102000000A20A08101242046FEF730FA1E4D2868E0
:10201000800706D42868C00617D40225284601B0D8
:10202000F0BD432619A707E001252846FEF71EFA52
:102030003E5D641C1B2CF1D0124D28680006F3D5C0
:102040000120FEF713FAAE81EEE74326012416A71E
:1020500006E00120FEF70AFA3E5D641C2C2C09D034
:10206000084800680006F4D50120FEF7FFF905488E
:102070008681EEE7686810210143696000252846E3
:1020800001B0F0BD1C48004018580040436865632B
:102090006B65642054584953202D2D20616C6C20B1
:1020A000676F6F640D0A0000436865636B656420A9
:1020B0004E41434B46202D20776972696E67206F31
:1020C0007220636F6E6669672069732077726F6E26
:1020D000670D0A00704780B5FEF7DCF980BD7047D8
:1020E0009AB0FEF7E1F90DAF381D30210691FEF7E9
:1020F000FBF800261696102011900124109402255A
:102100000D953846FEF7F2FA002803D0EFF3108061
:1021100072B6FEE705950C960B960A960720099075
:1021200009A83146FEF720FA002803D0EFF310800B
:1021300072B6FEE7A104F44802680A430260E204B2
:10214000036813430360A305029382681A43826005
:1021500082680A43826022030392EC4F386810437E
:1021600038603868EA4A10403860A2030492386840
:10217000104338603868E74E3040386020043A68D1
:1021800002433A603868E44A1040386038680843CF
:1021900038603868E1490840386078684021089123
:1021A00088437860786880210791884378602002AE
:1021B0007A6882437A6060027A6882437A60BA6899
:1021C000D7490A40BA60BA68D64B1A40BA60BA68B2
:1021D000D54D2A40BA60B868D44A1040B860F86853
:1021E0000840F860F868CA490840F860F868184084
:1021F000F860F8683040F860F8682840F860F868DF
:10220000C5490840F860F8681040F860F868C349AC
:102210000840F8600F2000023968814339600520CA
:102220004002396801433960FF200004396A814364
:10223000396211200004396A01433962FEF750FA0D
:10224000E121490200F08EF9B94A114610390860BF
:1022500010461C3801680C220A43026001682143C1
:102260000160B448014624390A68029DAA430A6005
:10227000E30501930A681A430A60E3020246203A22
:1022800016681E4316600368039E334303600368A9
:102290009F4E334003600368A24E334003600368DF
:1022A0009C4E33400360A3060E689E430E60E30617
:1022B0000E681E430E60630316681E4316602305F6
:1022C00006681E430660630506689E430660036851
:1022D0002B4303600368019DAB43036023070E6833
:1022E0001E430E6063070E689E430E6011688D4B9F
:1022F000194011600C380168049A11430160386874
:10230000204338603868059DA84338607868A0434A
:102310007860B8692043B861874A106987490143EA
:10232000116160065168814351601068204310605C
:10233000692000222946FFF755F902E0E8430642EA
:102340000AD1FFF783FD06460028F7D16920022154
:102350000022FFF747F9F1E7572679A506E00120AB
:10236000FEF784F82E5D641C222C09D070480068AA
:102370000006F4D50120FEF779F86D488681EEE776
:1023800020246D4884626A4D28680006069E03D5A5
:102390000120FEF76BF8AE810120FEF767F8286890
:1023A000000604D50120FEF761F87820A8810120FD
:1023B000FEF75CF82868000604D50120FEF756F801
:1023C0003220A8810120FEF751F82868000603D5C5
:1023D0000120FEF74BF8AE810120FEF747F8286890
:1023E000000603D50120FEF741F8AC8101252846FF
:1023F000FEF73CF828464E4DFEF738F80B204E49C4
:1024000088622868000603D50120FEF72FF8AE8108
:102410000120FEF72BF82868000604D50120FEF7FE
:1024200025F87820A8810120FEF720F8286800060A
:1024300003D50120FEF71AF8AE810120FEF716F849
:102440002868000604D50120FEF710F84220A88174
:102450000120FEF70BF82868000603D50120FEF7DF
:1024600005F8AC810120FEF701F82868000604D5C4
:102470000120FDF7FBFF0D20A8810120FDF7F6FFED
:102480002868000604D50120FDF7F0FF0A20A88186
:102490000120FDF7EBFF2868000604D50120FDF7B9
:1024A000E5FF0D20A8810120FDF7E0FF2868000668
:1024B00004D50120FDF7DAFF0A20A8810124204677
:1024C000FDF7D4FFFFF7B0FB0228FBD003E02002AA
:1024D000B9690143B961FEF779FB0546FEF7FCFDDA
:1024E00006466420FDF7C2FF002E089803DDB96997
:1024F0000143B96101E00798F9D4002DE7DC002D14
:10250000E9D56002E4E7C046141002400008004824
:10251000FFDFFFFFFF7FFFFFFFFFFDFFFFFFF7FF75
:10252000FFEFFFFFFFBFFFFFFFFFFEFFFFFFFBFF10
:102530001C4800402404004800580040130F42107B
:102540005772697465204354524C5F52454731209D
:10255000616E642073657420544320666C61670D5E
:102560000A00000043088B421AD3002203098B4261
:1025700079D3030A8B425ED3030B8B4242D3030C05
:102580008B4227D30902FF2212BA030C8B4202D3DB
:102590001212090203D0030B8B4233D31AE0D3E0AB
:1025A000411A8041401C704703460B4371D44308D5
:1025B0008B42F5D3002203098B4254D3030A8B428A
:1025C00039D3030B8B421DD3030C8B4202D39446A9
:1025D0006EE0090AC30B8B4201D3CB03C01A5241F0
:1025E000830B8B4201D38B03C01A5241430B8B42A6
:1025F00001D34B03C01A5241030B8B4201D30B038F
:10260000C01A5241C30A8B4201D3CB02C01A5241B5
:10261000830A8B4201D38B02C01A5241430A8B4278
:1026200001D34B02C01A5241030A8B4201D30B0261
:10263000C01A5241CDD2C3098B4201D3CB01C01A7B
:10264000524183098B4201D38B01C01A5241430985
:102650008B4201D34B01C01A524103098B4201D373
:102660000B01C01A5241C3088B4201D3CB00C01AE0
:10267000524183088B4201D38B00C01A5241430858
:102680008B4201D34B00C01A5241411A52411000F3
:102690007047CA0F00D04942031000D34042534054
:1026A00000229C4603098B422DD3030A8B4212D38E
:1026B0008901FC2212BA030A8B420CD389019211C0
:1026C0008B4208D3890192118B4204D3890137D000
:1026D000921100E08909C3098B4201D3CB01C01AD2
:1026E000524183098B4201D38B01C01A52414309E5
:1026F0008B4201D34B01C01A524103098B4201D3D3
:102700000B01C01A5241C3088B4201D3CB00C01A3F
:10271000524183088B4201D38B00C01A5241D9D257
:1027200043088B4201D34B00C01A5241411A00D2D8
:1027300001465241104663465B1000D34042704749
:1027400063465B1000D3404201B50021004201D036
:10275000C9430846C046C04602BD00000000000054
:102760000000010203040607080902030405060726
:1027700008090A0B0C0D0E0F1010010203040506C8
:102780000708090A0B0C0D0E0F1025690000000048
:10279000B02700080000002010000000040100081D
:1027A000C027000810000020680600002001000873
:1027B000010000000400000000127A000000000088
:04000005080000C12E
:00000001FF
